{
  "_format": "hh-sol-artifact-1",
  "contractName": "SampleToken",
  "sourceName": "src/backend/contracts/SampleToken.sol",
  "abi": [
    {
      "inputs": [
        {
          "internalType": "uint256",
          "name": "_amount",
          "type": "uint256"
        }
      ],
      "stateMutability": "nonpayable",
      "type": "constructor"
    },
    {
      "anonymous": false,
      "inputs": [
        {
          "indexed": true,
          "internalType": "address",
          "name": "owner",
          "type": "address"
        },
        {
          "indexed": true,
          "internalType": "address",
          "name": "spender",
          "type": "address"
        },
        {
          "indexed": false,
          "internalType": "uint256",
          "name": "value",
          "type": "uint256"
        }
      ],
      "name": "Approval",
      "type": "event"
    },
    {
      "anonymous": false,
      "inputs": [
        {
          "indexed": true,
          "internalType": "address",
          "name": "from",
          "type": "address"
        },
        {
          "indexed": true,
          "internalType": "address",
          "name": "to",
          "type": "address"
        },
        {
          "indexed": false,
          "internalType": "uint256",
          "name": "value",
          "type": "uint256"
        }
      ],
      "name": "Transfer",
      "type": "event"
    },
    {
      "inputs": [],
      "name": "_name",
      "outputs": [
        {
          "internalType": "string",
          "name": "",
          "type": "string"
        }
      ],
      "stateMutability": "view",
      "type": "function"
    },
    {
      "inputs": [],
      "name": "_symbol",
      "outputs": [
        {
          "internalType": "string",
          "name": "",
          "type": "string"
        }
      ],
      "stateMutability": "view",
      "type": "function"
    },
    {
      "inputs": [
        {
          "internalType": "address",
          "name": "owner",
          "type": "address"
        },
        {
          "internalType": "address",
          "name": "spender",
          "type": "address"
        }
      ],
      "name": "allowance",
      "outputs": [
        {
          "internalType": "uint256",
          "name": "",
          "type": "uint256"
        }
      ],
      "stateMutability": "view",
      "type": "function"
    },
    {
      "inputs": [
        {
          "internalType": "address",
          "name": "spender",
          "type": "address"
        },
        {
          "internalType": "uint256",
          "name": "amount",
          "type": "uint256"
        }
      ],
      "name": "approve",
      "outputs": [
        {
          "internalType": "bool",
          "name": "",
          "type": "bool"
        }
      ],
      "stateMutability": "nonpayable",
      "type": "function"
    },
    {
      "inputs": [
        {
          "internalType": "address",
          "name": "account",
          "type": "address"
        }
      ],
      "name": "balanceOf",
      "outputs": [
        {
          "internalType": "uint256",
          "name": "",
          "type": "uint256"
        }
      ],
      "stateMutability": "view",
      "type": "function"
    },
    {
      "inputs": [],
      "name": "decimals",
      "outputs": [
        {
          "internalType": "uint8",
          "name": "",
          "type": "uint8"
        }
      ],
      "stateMutability": "view",
      "type": "function"
    },
    {
      "inputs": [
        {
          "internalType": "address",
          "name": "spender",
          "type": "address"
        },
        {
          "internalType": "uint256",
          "name": "subtractedValue",
          "type": "uint256"
        }
      ],
      "name": "decreaseAllowance",
      "outputs": [
        {
          "internalType": "bool",
          "name": "",
          "type": "bool"
        }
      ],
      "stateMutability": "nonpayable",
      "type": "function"
    },
    {
      "inputs": [
        {
          "internalType": "address",
          "name": "spender",
          "type": "address"
        },
        {
          "internalType": "uint256",
          "name": "addedValue",
          "type": "uint256"
        }
      ],
      "name": "increaseAllowance",
      "outputs": [
        {
          "internalType": "bool",
          "name": "",
          "type": "bool"
        }
      ],
      "stateMutability": "nonpayable",
      "type": "function"
    },
    {
      "inputs": [],
      "name": "name",
      "outputs": [
        {
          "internalType": "string",
          "name": "",
          "type": "string"
        }
      ],
      "stateMutability": "view",
      "type": "function"
    },
    {
      "inputs": [],
      "name": "symbol",
      "outputs": [
        {
          "internalType": "string",
          "name": "",
          "type": "string"
        }
      ],
      "stateMutability": "view",
      "type": "function"
    },
    {
      "inputs": [],
      "name": "totalSupply",
      "outputs": [
        {
          "internalType": "uint256",
          "name": "",
          "type": "uint256"
        }
      ],
      "stateMutability": "view",
      "type": "function"
    },
    {
      "inputs": [
        {
          "internalType": "address",
          "name": "to",
          "type": "address"
        },
        {
          "internalType": "uint256",
          "name": "amount",
          "type": "uint256"
        }
      ],
      "name": "transfer",
      "outputs": [
        {
          "internalType": "bool",
          "name": "",
          "type": "bool"
        }
      ],
      "stateMutability": "nonpayable",
      "type": "function"
    },
    {
      "inputs": [
        {
          "internalType": "address",
          "name": "from",
          "type": "address"
        },
        {
          "internalType": "address",
          "name": "to",
          "type": "address"
        },
        {
          "internalType": "uint256",
          "name": "amount",
          "type": "uint256"
        }
      ],
      "name": "transferFrom",
      "outputs": [
        {
          "internalType": "bool",
          "name": "",
          "type": "bool"
        }
      ],
      "stateMutability": "nonpayable",
      "type": "function"
    }
  ],
  "bytecode": "0x60806040526040518060400160405280600b81526020017f53616d706c65546f6b656e0000000000000000000000000000000000000000008152506005908051906020019062000051929190620003c9565b506040518060400160405280600381526020017f53414d0000000000000000000000000000000000000000000000000000000000815250600690805190602001906200009f929190620003c9565b50348015620000ad57600080fd5b5060405162001b4938038062001b498339818101604052810190620000d3919062000490565b60058054620000e290620005ab565b80601f01602080910402602001604051908101604052809291908181526020018280546200011090620005ab565b8015620001615780601f10620001355761010080835404028352916020019162000161565b820191906000526020600020905b8154815290600101906020018083116200014357829003601f168201915b5050505050600680546200017590620005ab565b80601f0160208091040260200160405190810160405280929190818152602001828054620001a390620005ab565b8015620001f45780601f10620001c857610100808354040283529160200191620001f4565b820191906000526020600020905b815481529060010190602001808311620001d657829003601f168201915b5050505050816003908051906020019062000211929190620003c9565b5080600490805190602001906200022a929190620003c9565b5050506200023f33826200024660201b60201c565b5062000682565b600073ffffffffffffffffffffffffffffffffffffffff168273ffffffffffffffffffffffffffffffffffffffff161415620002b9576040517f08c379a0000000000000000000000000000000000000000000000000000000008152600401620002b090620004f4565b60405180910390fd5b620002cd60008383620003bf60201b60201c565b8060026000828254620002e1919062000544565b92505081905550806000808473ffffffffffffffffffffffffffffffffffffffff1673ffffffffffffffffffffffffffffffffffffffff168152602001908152602001600020600082825462000338919062000544565b925050819055508173ffffffffffffffffffffffffffffffffffffffff16600073ffffffffffffffffffffffffffffffffffffffff167fddf252ad1be2c89b69c2b068fc378daa952ba7f163c4a11628f55a4df523b3ef836040516200039f919062000516565b60405180910390a3620003bb60008383620003c460201b60201c565b5050565b505050565b505050565b828054620003d790620005ab565b90600052602060002090601f016020900481019282620003fb576000855562000447565b82601f106200041657805160ff191683800117855562000447565b8280016001018555821562000447579182015b828111156200044657825182559160200191906001019062000429565b5b5090506200045691906200045a565b5090565b5b80821115620004755760008160009055506001016200045b565b5090565b6000815190506200048a8162000668565b92915050565b600060208284031215620004a357600080fd5b6000620004b38482850162000479565b91505092915050565b6000620004cb601f8362000533565b9150620004d8826200063f565b602082019050919050565b620004ee81620005a1565b82525050565b600060208201905081810360008301526200050f81620004bc565b9050919050565b60006020820190506200052d6000830184620004e3565b92915050565b600082825260208201905092915050565b60006200055182620005a1565b91506200055e83620005a1565b9250827fffffffffffffffffffffffffffffffffffffffffffffffffffffffffffffffff03821115620005965762000595620005e1565b5b828201905092915050565b6000819050919050565b60006002820490506001821680620005c457607f821691505b60208210811415620005db57620005da62000610565b5b50919050565b7f4e487b7100000000000000000000000000000000000000000000000000000000600052601160045260246000fd5b7f4e487b7100000000000000000000000000000000000000000000000000000000600052602260045260246000fd5b7f45524332303a206d696e7420746f20746865207a65726f206164647265737300600082015250565b6200067381620005a1565b81146200067f57600080fd5b50565b6114b780620006926000396000f3fe608060405234801561001057600080fd5b50600436106100cf5760003560e01c806370a082311161008c578063a9059cbb11610066578063a9059cbb1461023c578063b09f12661461026c578063d28d88521461028a578063dd62ed3e146102a8576100cf565b806370a08231146101be57806395d89b41146101ee578063a457c2d71461020c576100cf565b806306fdde03146100d4578063095ea7b3146100f257806318160ddd1461012257806323b872dd14610140578063313ce56714610170578063395093511461018e575b600080fd5b6100dc6102d8565b6040516100e99190610f7d565b60405180910390f35b61010c60048036038101906101079190610dcb565b61036a565b6040516101199190610f62565b60405180910390f35b61012a61038d565b604051610137919061107f565b60405180910390f35b61015a60048036038101906101559190610d7c565b610397565b6040516101679190610f62565b60405180910390f35b6101786103c6565b604051610185919061109a565b60405180910390f35b6101a860048036038101906101a39190610dcb565b6103cf565b6040516101b59190610f62565b60405180910390f35b6101d860048036038101906101d39190610d17565b610479565b6040516101e5919061107f565b60405180910390f35b6101f66104c1565b6040516102039190610f7d565b60405180910390f35b61022660048036038101906102219190610dcb565b610553565b6040516102339190610f62565b60405180910390f35b61025660048036038101906102519190610dcb565b61063d565b6040516102639190610f62565b60405180910390f35b610274610660565b6040516102819190610f7d565b60405180910390f35b6102926106ee565b60405161029f9190610f7d565b60405180910390f35b6102c260048036038101906102bd9190610d40565b61077c565b6040516102cf919061107f565b60405180910390f35b6060600380546102e7906111af565b80601f0160208091040260200160405190810160405280929190818152602001828054610313906111af565b80156103605780601f1061033557610100808354040283529160200191610360565b820191906000526020600020905b81548152906001019060200180831161034357829003601f168201915b5050505050905090565b600080610375610803565b905061038281858561080b565b600191505092915050565b6000600254905090565b6000806103a2610803565b90506103af8582856109d6565b6103ba858585610a62565b60019150509392505050565b60006012905090565b6000806103da610803565b905061046e818585600160008673ffffffffffffffffffffffffffffffffffffffff1673ffffffffffffffffffffffffffffffffffffffff16815260200190815260200160002060008973ffffffffffffffffffffffffffffffffffffffff1673ffffffffffffffffffffffffffffffffffffffff1681526020019081526020016000205461046991906110d1565b61080b565b600191505092915050565b60008060008373ffffffffffffffffffffffffffffffffffffffff1673ffffffffffffffffffffffffffffffffffffffff168152602001908152602001600020549050919050565b6060600480546104d0906111af565b80601f01602080910402602001604051908101604052809291908181526020018280546104fc906111af565b80156105495780601f1061051e57610100808354040283529160200191610549565b820191906000526020600020905b81548152906001019060200180831161052c57829003601f168201915b5050505050905090565b60008061055e610803565b90506000600160008373ffffffffffffffffffffffffffffffffffffffff1673ffffffffffffffffffffffffffffffffffffffff16815260200190815260200160002060008673ffffffffffffffffffffffffffffffffffffffff1673ffffffffffffffffffffffffffffffffffffffff16815260200190815260200160002054905083811015610624576040517f08c379a000000000000000000000000000000000000000000000000000000000815260040161061b9061105f565b60405180910390fd5b610631828686840361080b565b60019250505092915050565b600080610648610803565b9050610655818585610a62565b600191505092915050565b6006805461066d906111af565b80601f0160208091040260200160405190810160405280929190818152602001828054610699906111af565b80156106e65780601f106106bb576101008083540402835291602001916106e6565b820191906000526020600020905b8154815290600101906020018083116106c957829003601f168201915b505050505081565b600580546106fb906111af565b80601f0160208091040260200160405190810160405280929190818152602001828054610727906111af565b80156107745780601f1061074957610100808354040283529160200191610774565b820191906000526020600020905b81548152906001019060200180831161075757829003601f168201915b505050505081565b6000600160008473ffffffffffffffffffffffffffffffffffffffff1673ffffffffffffffffffffffffffffffffffffffff16815260200190815260200160002060008373ffffffffffffffffffffffffffffffffffffffff1673ffffffffffffffffffffffffffffffffffffffff16815260200190815260200160002054905092915050565b600033905090565b600073ffffffffffffffffffffffffffffffffffffffff168373ffffffffffffffffffffffffffffffffffffffff16141561087b576040517f08c379a00000000000000000000000000000000000000000000000000000000081526004016108729061103f565b60405180910390fd5b600073ffffffffffffffffffffffffffffffffffffffff168273ffffffffffffffffffffffffffffffffffffffff1614156108eb576040517f08c379a00000000000000000000000000000000000000000000000000000000081526004016108e290610fbf565b60405180910390fd5b80600160008573ffffffffffffffffffffffffffffffffffffffff1673ffffffffffffffffffffffffffffffffffffffff16815260200190815260200160002060008473ffffffffffffffffffffffffffffffffffffffff1673ffffffffffffffffffffffffffffffffffffffff168152602001908152602001600020819055508173ffffffffffffffffffffffffffffffffffffffff168373ffffffffffffffffffffffffffffffffffffffff167f8c5be1e5ebec7d5bd14f71427d1e84f3dd0314c0f7b2291e5b200ac8c7c3b925836040516109c9919061107f565b60405180910390a3505050565b60006109e2848461077c565b90507fffffffffffffffffffffffffffffffffffffffffffffffffffffffffffffffff8114610a5c5781811015610a4e576040517f08c379a0000000000000000000000000000000000000000000000000000000008152600401610a4590610fdf565b60405180910390fd5b610a5b848484840361080b565b5b50505050565b600073ffffffffffffffffffffffffffffffffffffffff168373ffffffffffffffffffffffffffffffffffffffff161415610ad2576040517f08c379a0000000000000000000000000000000000000000000000000000000008152600401610ac99061101f565b60405180910390fd5b600073ffffffffffffffffffffffffffffffffffffffff168273ffffffffffffffffffffffffffffffffffffffff161415610b42576040517f08c379a0000000000000000000000000000000000000000000000000000000008152600401610b3990610f9f565b60405180910390fd5b610b4d838383610ce3565b60008060008573ffffffffffffffffffffffffffffffffffffffff1673ffffffffffffffffffffffffffffffffffffffff16815260200190815260200160002054905081811015610bd3576040517f08c379a0000000000000000000000000000000000000000000000000000000008152600401610bca90610fff565b60405180910390fd5b8181036000808673ffffffffffffffffffffffffffffffffffffffff1673ffffffffffffffffffffffffffffffffffffffff16815260200190815260200160002081905550816000808573ffffffffffffffffffffffffffffffffffffffff1673ffffffffffffffffffffffffffffffffffffffff1681526020019081526020016000206000828254610c6691906110d1565b925050819055508273ffffffffffffffffffffffffffffffffffffffff168473ffffffffffffffffffffffffffffffffffffffff167fddf252ad1be2c89b69c2b068fc378daa952ba7f163c4a11628f55a4df523b3ef84604051610cca919061107f565b60405180910390a3610cdd848484610ce8565b50505050565b505050565b505050565b600081359050610cfc81611453565b92915050565b600081359050610d118161146a565b92915050565b600060208284031215610d2957600080fd5b6000610d3784828501610ced565b91505092915050565b60008060408385031215610d5357600080fd5b6000610d6185828601610ced565b9250506020610d7285828601610ced565b9150509250929050565b600080600060608486031215610d9157600080fd5b6000610d9f86828701610ced565b9350506020610db086828701610ced565b9250506040610dc186828701610d02565b9150509250925092565b60008060408385031215610dde57600080fd5b6000610dec85828601610ced565b9250506020610dfd85828601610d02565b9150509250929050565b610e1081611139565b82525050565b6000610e21826110b5565b610e2b81856110c0565b9350610e3b81856020860161117c565b610e448161123f565b840191505092915050565b6000610e5c6023836110c0565b9150610e6782611250565b604082019050919050565b6000610e7f6022836110c0565b9150610e8a8261129f565b604082019050919050565b6000610ea2601d836110c0565b9150610ead826112ee565b602082019050919050565b6000610ec56026836110c0565b9150610ed082611317565b604082019050919050565b6000610ee86025836110c0565b9150610ef382611366565b604082019050919050565b6000610f0b6024836110c0565b9150610f16826113b5565b604082019050919050565b6000610f2e6025836110c0565b9150610f3982611404565b604082019050919050565b610f4d81611165565b82525050565b610f5c8161116f565b82525050565b6000602082019050610f776000830184610e07565b92915050565b60006020820190508181036000830152610f978184610e16565b905092915050565b60006020820190508181036000830152610fb881610e4f565b9050919050565b60006020820190508181036000830152610fd881610e72565b9050919050565b60006020820190508181036000830152610ff881610e95565b9050919050565b6000602082019050818103600083015261101881610eb8565b9050919050565b6000602082019050818103600083015261103881610edb565b9050919050565b6000602082019050818103600083015261105881610efe565b9050919050565b6000602082019050818103600083015261107881610f21565b9050919050565b60006020820190506110946000830184610f44565b92915050565b60006020820190506110af6000830184610f53565b92915050565b600081519050919050565b600082825260208201905092915050565b60006110dc82611165565b91506110e783611165565b9250827fffffffffffffffffffffffffffffffffffffffffffffffffffffffffffffffff0382111561111c5761111b6111e1565b5b828201905092915050565b600061113282611145565b9050919050565b60008115159050919050565b600073ffffffffffffffffffffffffffffffffffffffff82169050919050565b6000819050919050565b600060ff82169050919050565b60005b8381101561119a57808201518184015260208101905061117f565b838111156111a9576000848401525b50505050565b600060028204905060018216806111c757607f821691505b602082108114156111db576111da611210565b5b50919050565b7f4e487b7100000000000000000000000000000000000000000000000000000000600052601160045260246000fd5b7f4e487b7100000000000000000000000000000000000000000000000000000000600052602260045260246000fd5b6000601f19601f8301169050919050565b7f45524332303a207472616e7366657220746f20746865207a65726f206164647260008201527f6573730000000000000000000000000000000000000000000000000000000000602082015250565b7f45524332303a20617070726f766520746f20746865207a65726f20616464726560008201527f7373000000000000000000000000000000000000000000000000000000000000602082015250565b7f45524332303a20696e73756666696369656e7420616c6c6f77616e6365000000600082015250565b7f45524332303a207472616e7366657220616d6f756e742065786365656473206260008201527f616c616e63650000000000000000000000000000000000000000000000000000602082015250565b7f45524332303a207472616e736665722066726f6d20746865207a65726f20616460008201527f6472657373000000000000000000000000000000000000000000000000000000602082015250565b7f45524332303a20617070726f76652066726f6d20746865207a65726f2061646460008201527f7265737300000000000000000000000000000000000000000000000000000000602082015250565b7f45524332303a2064656372656173656420616c6c6f77616e63652062656c6f7760008201527f207a65726f000000000000000000000000000000000000000000000000000000602082015250565b61145c81611127565b811461146757600080fd5b50565b61147381611165565b811461147e57600080fd5b5056fea26469706673582212202360caf516b01f1f6caa635d4b903bef3f18e04d5f67424b02dc891602e9752a64736f6c63430008040033",
  "linkReferences": {},
  "deployedLinkReferences": {}
}