{
  "_format": "hh-sol-artifact-1",
  "contractName": "Vault",
  "sourceName": "src/backend/contracts/Vault.sol",
  "abi": [
    {
      "inputs": [
        {
          "internalType": "string",
          "name": "_name",
          "type": "string"
        },
        {
          "internalType": "string",
          "name": "_symbol",
          "type": "string"
        },
        {
          "internalType": "contract IERC20",
          "name": "_Token",
          "type": "address"
        }
      ],
      "stateMutability": "nonpayable",
      "type": "constructor"
    },
    {
      "anonymous": false,
      "inputs": [
        {
          "indexed": true,
          "internalType": "address",
          "name": "owner",
          "type": "address"
        },
        {
          "indexed": true,
          "internalType": "address",
          "name": "spender",
          "type": "address"
        },
        {
          "indexed": false,
          "internalType": "uint256",
          "name": "value",
          "type": "uint256"
        }
      ],
      "name": "Approval",
      "type": "event"
    },
    {
      "anonymous": false,
      "inputs": [
        {
          "indexed": true,
          "internalType": "address",
          "name": "from",
          "type": "address"
        },
        {
          "indexed": true,
          "internalType": "address",
          "name": "to",
          "type": "address"
        },
        {
          "indexed": false,
          "internalType": "uint256",
          "name": "value",
          "type": "uint256"
        }
      ],
      "name": "Transfer",
      "type": "event"
    },
    {
      "inputs": [],
      "name": "Token",
      "outputs": [
        {
          "internalType": "contract IERC20",
          "name": "",
          "type": "address"
        }
      ],
      "stateMutability": "view",
      "type": "function"
    },
    {
      "inputs": [
        {
          "internalType": "address",
          "name": "owner",
          "type": "address"
        },
        {
          "internalType": "address",
          "name": "spender",
          "type": "address"
        }
      ],
      "name": "allowance",
      "outputs": [
        {
          "internalType": "uint256",
          "name": "",
          "type": "uint256"
        }
      ],
      "stateMutability": "view",
      "type": "function"
    },
    {
      "inputs": [
        {
          "internalType": "address",
          "name": "spender",
          "type": "address"
        },
        {
          "internalType": "uint256",
          "name": "amount",
          "type": "uint256"
        }
      ],
      "name": "approve",
      "outputs": [
        {
          "internalType": "bool",
          "name": "",
          "type": "bool"
        }
      ],
      "stateMutability": "nonpayable",
      "type": "function"
    },
    {
      "inputs": [
        {
          "internalType": "address",
          "name": "account",
          "type": "address"
        }
      ],
      "name": "balanceOf",
      "outputs": [
        {
          "internalType": "uint256",
          "name": "",
          "type": "uint256"
        }
      ],
      "stateMutability": "view",
      "type": "function"
    },
    {
      "inputs": [],
      "name": "decimals",
      "outputs": [
        {
          "internalType": "uint8",
          "name": "",
          "type": "uint8"
        }
      ],
      "stateMutability": "view",
      "type": "function"
    },
    {
      "inputs": [
        {
          "internalType": "address",
          "name": "spender",
          "type": "address"
        },
        {
          "internalType": "uint256",
          "name": "subtractedValue",
          "type": "uint256"
        }
      ],
      "name": "decreaseAllowance",
      "outputs": [
        {
          "internalType": "bool",
          "name": "",
          "type": "bool"
        }
      ],
      "stateMutability": "nonpayable",
      "type": "function"
    },
    {
      "inputs": [
        {
          "internalType": "uint256",
          "name": "_amount",
          "type": "uint256"
        }
      ],
      "name": "deposit",
      "outputs": [],
      "stateMutability": "nonpayable",
      "type": "function"
    },
    {
      "inputs": [
        {
          "internalType": "address",
          "name": "spender",
          "type": "address"
        },
        {
          "internalType": "uint256",
          "name": "addedValue",
          "type": "uint256"
        }
      ],
      "name": "increaseAllowance",
      "outputs": [
        {
          "internalType": "bool",
          "name": "",
          "type": "bool"
        }
      ],
      "stateMutability": "nonpayable",
      "type": "function"
    },
    {
      "inputs": [],
      "name": "name",
      "outputs": [
        {
          "internalType": "string",
          "name": "",
          "type": "string"
        }
      ],
      "stateMutability": "view",
      "type": "function"
    },
    {
      "inputs": [],
      "name": "symbol",
      "outputs": [
        {
          "internalType": "string",
          "name": "",
          "type": "string"
        }
      ],
      "stateMutability": "view",
      "type": "function"
    },
    {
      "inputs": [],
      "name": "totalSupply",
      "outputs": [
        {
          "internalType": "uint256",
          "name": "",
          "type": "uint256"
        }
      ],
      "stateMutability": "view",
      "type": "function"
    },
    {
      "inputs": [
        {
          "internalType": "address",
          "name": "to",
          "type": "address"
        },
        {
          "internalType": "uint256",
          "name": "amount",
          "type": "uint256"
        }
      ],
      "name": "transfer",
      "outputs": [
        {
          "internalType": "bool",
          "name": "",
          "type": "bool"
        }
      ],
      "stateMutability": "nonpayable",
      "type": "function"
    },
    {
      "inputs": [
        {
          "internalType": "address",
          "name": "from",
          "type": "address"
        },
        {
          "internalType": "address",
          "name": "to",
          "type": "address"
        },
        {
          "internalType": "uint256",
          "name": "amount",
          "type": "uint256"
        }
      ],
      "name": "transferFrom",
      "outputs": [
        {
          "internalType": "bool",
          "name": "",
          "type": "bool"
        }
      ],
      "stateMutability": "nonpayable",
      "type": "function"
    },
    {
      "inputs": [
        {
          "internalType": "uint256",
          "name": "_xAmount",
          "type": "uint256"
        }
      ],
      "name": "withdraw",
      "outputs": [],
      "stateMutability": "nonpayable",
      "type": "function"
    }
  ],
  "bytecode": "0x60806040523480156200001157600080fd5b506040516200246e3803806200246e8339818101604052810190620000379190620001f8565b8282816003908051906020019062000051929190620000bf565b5080600490805190602001906200006a929190620000bf565b505050600160058190555080600660006101000a81548173ffffffffffffffffffffffffffffffffffffffff021916908373ffffffffffffffffffffffffffffffffffffffff16021790555050505062000452565b828054620000cd906200035d565b90600052602060002090601f016020900481019282620000f157600085556200013d565b82601f106200010c57805160ff19168380011785556200013d565b828001600101855582156200013d579182015b828111156200013c5782518255916020019190600101906200011f565b5b5090506200014c919062000150565b5090565b5b808211156200016b57600081600090555060010162000151565b5090565b6000620001866200018084620002a9565b62000280565b9050828152602081018484840111156200019f57600080fd5b620001ac84828562000327565b509392505050565b600081519050620001c58162000438565b92915050565b600082601f830112620001dd57600080fd5b8151620001ef8482602086016200016f565b91505092915050565b6000806000606084860312156200020e57600080fd5b600084015167ffffffffffffffff8111156200022957600080fd5b6200023786828701620001cb565b935050602084015167ffffffffffffffff8111156200025557600080fd5b6200026386828701620001cb565b92505060406200027686828701620001b4565b9150509250925092565b60006200028c6200029f565b90506200029a828262000393565b919050565b6000604051905090565b600067ffffffffffffffff821115620002c757620002c6620003f8565b5b620002d28262000427565b9050602081019050919050565b6000620002ec8262000307565b9050919050565b60006200030082620002df565b9050919050565b600073ffffffffffffffffffffffffffffffffffffffff82169050919050565b60005b83811015620003475780820151818401526020810190506200032a565b8381111562000357576000848401525b50505050565b600060028204905060018216806200037657607f821691505b602082108114156200038d576200038c620003c9565b5b50919050565b6200039e8262000427565b810181811067ffffffffffffffff82111715620003c057620003bf620003f8565b5b80604052505050565b7f4e487b7100000000000000000000000000000000000000000000000000000000600052602260045260246000fd5b7f4e487b7100000000000000000000000000000000000000000000000000000000600052604160045260246000fd5b6000601f19601f8301169050919050565b6200044381620002f3565b81146200044f57600080fd5b50565b61200c80620004626000396000f3fe608060405234801561001057600080fd5b50600436106100ea5760003560e01c806370a082311161008c578063a9059cbb11610066578063a9059cbb14610273578063b6b55f25146102a3578063c2412676146102bf578063dd62ed3e146102dd576100ea565b806370a08231146101f557806395d89b4114610225578063a457c2d714610243576100ea565b806323b872dd116100c857806323b872dd1461015b5780632e1a7d4d1461018b578063313ce567146101a757806339509351146101c5576100ea565b806306fdde03146100ef578063095ea7b31461010d57806318160ddd1461013d575b600080fd5b6100f761030d565b6040516101049190611839565b60405180910390f35b610127600480360381019061012291906114cc565b61039f565b6040516101349190611803565b60405180910390f35b6101456103c2565b60405161015291906119bb565b60405180910390f35b6101756004803603810190610170919061147d565b6103cc565b6040516101829190611803565b60405180910390f35b6101a560048036038101906101a09190611531565b6103fb565b005b6101af610608565b6040516101bc91906119d6565b60405180910390f35b6101df60048036038101906101da91906114cc565b610611565b6040516101ec9190611803565b60405180910390f35b61020f600480360381019061020a9190611418565b6106bb565b60405161021c91906119bb565b60405180910390f35b61022d610703565b60405161023a9190611839565b60405180910390f35b61025d600480360381019061025891906114cc565b610795565b60405161026a9190611803565b60405180910390f35b61028d600480360381019061028891906114cc565b61087f565b60405161029a9190611803565b60405180910390f35b6102bd60048036038101906102b89190611531565b6108a2565b005b6102c7610aca565b6040516102d4919061181e565b60405180910390f35b6102f760048036038101906102f29190611441565b610af0565b60405161030491906119bb565b60405180910390f35b60606003805461031c90611bce565b80601f016020809104026020016040519081016040528092919081815260200182805461034890611bce565b80156103955780601f1061036a57610100808354040283529160200191610395565b820191906000526020600020905b81548152906001019060200180831161037857829003601f168201915b5050505050905090565b6000806103aa610b77565b90506103b7818585610b7f565b600191505092915050565b6000600254905090565b6000806103d7610b77565b90506103e4858285610d4a565b6103ef858585610dd6565b60019150509392505050565b60026005541415610441576040517f08c379a00000000000000000000000000000000000000000000000000000000081526004016104389061195b565b60405180910390fd5b60026005819055506000811161045657600080fd5b6000600660009054906101000a900473ffffffffffffffffffffffffffffffffffffffff1673ffffffffffffffffffffffffffffffffffffffff166370a08231306040518263ffffffff1660e01b81526004016104b39190611788565b60206040518083038186803b1580156104cb57600080fd5b505afa1580156104df573d6000803e3d6000fd5b505050506040513d601f19601f82011682018060405250810190610503919061155a565b9050600061050f6103c2565b90506000610526828461105790919063ffffffff16565b9050600061053d828661106d90919063ffffffff16565b90506105493386611083565b600660009054906101000a900473ffffffffffffffffffffffffffffffffffffffff1673ffffffffffffffffffffffffffffffffffffffff1663a9059cbb33836040518363ffffffff1660e01b81526004016105a69291906117da565b602060405180830381600087803b1580156105c057600080fd5b505af11580156105d4573d6000803e3d6000fd5b505050506040513d601f19601f820116820180604052508101906105f89190611508565b5050505050600160058190555050565b60006012905090565b60008061061c610b77565b90506106b0818585600160008673ffffffffffffffffffffffffffffffffffffffff1673ffffffffffffffffffffffffffffffffffffffff16815260200190815260200160002060008973ffffffffffffffffffffffffffffffffffffffff1673ffffffffffffffffffffffffffffffffffffffff168152602001908152602001600020546106ab9190611a0d565b610b7f565b600191505092915050565b60008060008373ffffffffffffffffffffffffffffffffffffffff1673ffffffffffffffffffffffffffffffffffffffff168152602001908152602001600020549050919050565b60606004805461071290611bce565b80601f016020809104026020016040519081016040528092919081815260200182805461073e90611bce565b801561078b5780601f106107605761010080835404028352916020019161078b565b820191906000526020600020905b81548152906001019060200180831161076e57829003601f168201915b5050505050905090565b6000806107a0610b77565b90506000600160008373ffffffffffffffffffffffffffffffffffffffff1673ffffffffffffffffffffffffffffffffffffffff16815260200190815260200160002060008673ffffffffffffffffffffffffffffffffffffffff1673ffffffffffffffffffffffffffffffffffffffff16815260200190815260200160002054905083811015610866576040517f08c379a000000000000000000000000000000000000000000000000000000000815260040161085d9061197b565b60405180910390fd5b6108738286868403610b7f565b60019250505092915050565b60008061088a610b77565b9050610897818585610dd6565b600191505092915050565b600260055414156108e8576040517f08c379a00000000000000000000000000000000000000000000000000000000081526004016108df9061195b565b60405180910390fd5b6002600581905550600081116108fd57600080fd5b6000600660009054906101000a900473ffffffffffffffffffffffffffffffffffffffff1673ffffffffffffffffffffffffffffffffffffffff166370a08231306040518263ffffffff1660e01b815260040161095a9190611788565b60206040518083038186803b15801561097257600080fd5b505afa158015610986573d6000803e3d6000fd5b505050506040513d601f19601f820116820180604052508101906109aa919061155a565b905060006109b66103c2565b905060008114156109d0576109cb338461125a565b610a0b565b60006109e5828461105790919063ffffffff16565b905060006109fc828661105790919063ffffffff16565b9050610a08338261125a565b50505b600660009054906101000a900473ffffffffffffffffffffffffffffffffffffffff1673ffffffffffffffffffffffffffffffffffffffff166323b872dd3330866040518463ffffffff1660e01b8152600401610a6a939291906117a3565b602060405180830381600087803b158015610a8457600080fd5b505af1158015610a98573d6000803e3d6000fd5b505050506040513d601f19601f82011682018060405250810190610abc9190611508565b505050600160058190555050565b600660009054906101000a900473ffffffffffffffffffffffffffffffffffffffff1681565b6000600160008473ffffffffffffffffffffffffffffffffffffffff1673ffffffffffffffffffffffffffffffffffffffff16815260200190815260200160002060008373ffffffffffffffffffffffffffffffffffffffff1673ffffffffffffffffffffffffffffffffffffffff16815260200190815260200160002054905092915050565b600033905090565b600073ffffffffffffffffffffffffffffffffffffffff168373ffffffffffffffffffffffffffffffffffffffff161415610bef576040517f08c379a0000000000000000000000000000000000000000000000000000000008152600401610be69061193b565b60405180910390fd5b600073ffffffffffffffffffffffffffffffffffffffff168273ffffffffffffffffffffffffffffffffffffffff161415610c5f576040517f08c379a0000000000000000000000000000000000000000000000000000000008152600401610c569061189b565b60405180910390fd5b80600160008573ffffffffffffffffffffffffffffffffffffffff1673ffffffffffffffffffffffffffffffffffffffff16815260200190815260200160002060008473ffffffffffffffffffffffffffffffffffffffff1673ffffffffffffffffffffffffffffffffffffffff168152602001908152602001600020819055508173ffffffffffffffffffffffffffffffffffffffff168373ffffffffffffffffffffffffffffffffffffffff167f8c5be1e5ebec7d5bd14f71427d1e84f3dd0314c0f7b2291e5b200ac8c7c3b92583604051610d3d91906119bb565b60405180910390a3505050565b6000610d568484610af0565b90507fffffffffffffffffffffffffffffffffffffffffffffffffffffffffffffffff8114610dd05781811015610dc2576040517f08c379a0000000000000000000000000000000000000000000000000000000008152600401610db9906118bb565b60405180910390fd5b610dcf8484848403610b7f565b5b50505050565b600073ffffffffffffffffffffffffffffffffffffffff168373ffffffffffffffffffffffffffffffffffffffff161415610e46576040517f08c379a0000000000000000000000000000000000000000000000000000000008152600401610e3d9061191b565b60405180910390fd5b600073ffffffffffffffffffffffffffffffffffffffff168273ffffffffffffffffffffffffffffffffffffffff161415610eb6576040517f08c379a0000000000000000000000000000000000000000000000000000000008152600401610ead9061185b565b60405180910390fd5b610ec18383836113ba565b60008060008573ffffffffffffffffffffffffffffffffffffffff1673ffffffffffffffffffffffffffffffffffffffff16815260200190815260200160002054905081811015610f47576040517f08c379a0000000000000000000000000000000000000000000000000000000008152600401610f3e906118db565b60405180910390fd5b8181036000808673ffffffffffffffffffffffffffffffffffffffff1673ffffffffffffffffffffffffffffffffffffffff16815260200190815260200160002081905550816000808573ffffffffffffffffffffffffffffffffffffffff1673ffffffffffffffffffffffffffffffffffffffff1681526020019081526020016000206000828254610fda9190611a0d565b925050819055508273ffffffffffffffffffffffffffffffffffffffff168473ffffffffffffffffffffffffffffffffffffffff167fddf252ad1be2c89b69c2b068fc378daa952ba7f163c4a11628f55a4df523b3ef8460405161103e91906119bb565b60405180910390a36110518484846113bf565b50505050565b600081836110659190611a63565b905092915050565b6000818361107b9190611a94565b905092915050565b600073ffffffffffffffffffffffffffffffffffffffff168273ffffffffffffffffffffffffffffffffffffffff1614156110f3576040517f08c379a00000000000000000000000000000000000000000000000000000000081526004016110ea906118fb565b60405180910390fd5b6110ff826000836113ba565b60008060008473ffffffffffffffffffffffffffffffffffffffff1673ffffffffffffffffffffffffffffffffffffffff16815260200190815260200160002054905081811015611185576040517f08c379a000000000000000000000000000000000000000000000000000000000815260040161117c9061187b565b60405180910390fd5b8181036000808573ffffffffffffffffffffffffffffffffffffffff1673ffffffffffffffffffffffffffffffffffffffff1681526020019081526020016000208190555081600260008282546111dc9190611aee565b92505081905550600073ffffffffffffffffffffffffffffffffffffffff168373ffffffffffffffffffffffffffffffffffffffff167fddf252ad1be2c89b69c2b068fc378daa952ba7f163c4a11628f55a4df523b3ef8460405161124191906119bb565b60405180910390a3611255836000846113bf565b505050565b600073ffffffffffffffffffffffffffffffffffffffff168273ffffffffffffffffffffffffffffffffffffffff1614156112ca576040517f08c379a00000000000000000000000000000000000000000000000000000000081526004016112c19061199b565b60405180910390fd5b6112d6600083836113ba565b80600260008282546112e89190611a0d565b92505081905550806000808473ffffffffffffffffffffffffffffffffffffffff1673ffffffffffffffffffffffffffffffffffffffff168152602001908152602001600020600082825461133d9190611a0d565b925050819055508173ffffffffffffffffffffffffffffffffffffffff16600073ffffffffffffffffffffffffffffffffffffffff167fddf252ad1be2c89b69c2b068fc378daa952ba7f163c4a11628f55a4df523b3ef836040516113a291906119bb565b60405180910390a36113b6600083836113bf565b5050565b505050565b505050565b6000813590506113d381611f91565b92915050565b6000815190506113e881611fa8565b92915050565b6000813590506113fd81611fbf565b92915050565b60008151905061141281611fbf565b92915050565b60006020828403121561142a57600080fd5b6000611438848285016113c4565b91505092915050565b6000806040838503121561145457600080fd5b6000611462858286016113c4565b9250506020611473858286016113c4565b9150509250929050565b60008060006060848603121561149257600080fd5b60006114a0868287016113c4565b93505060206114b1868287016113c4565b92505060406114c2868287016113ee565b9150509250925092565b600080604083850312156114df57600080fd5b60006114ed858286016113c4565b92505060206114fe858286016113ee565b9150509250929050565b60006020828403121561151a57600080fd5b6000611528848285016113d9565b91505092915050565b60006020828403121561154357600080fd5b6000611551848285016113ee565b91505092915050565b60006020828403121561156c57600080fd5b600061157a84828501611403565b91505092915050565b61158c81611b22565b82525050565b61159b81611b34565b82525050565b6115aa81611b77565b82525050565b60006115bb826119f1565b6115c581856119fc565b93506115d5818560208601611b9b565b6115de81611c8d565b840191505092915050565b60006115f66023836119fc565b915061160182611c9e565b604082019050919050565b60006116196022836119fc565b915061162482611ced565b604082019050919050565b600061163c6022836119fc565b915061164782611d3c565b604082019050919050565b600061165f601d836119fc565b915061166a82611d8b565b602082019050919050565b60006116826026836119fc565b915061168d82611db4565b604082019050919050565b60006116a56021836119fc565b91506116b082611e03565b604082019050919050565b60006116c86025836119fc565b91506116d382611e52565b604082019050919050565b60006116eb6024836119fc565b91506116f682611ea1565b604082019050919050565b600061170e601f836119fc565b915061171982611ef0565b602082019050919050565b60006117316025836119fc565b915061173c82611f19565b604082019050919050565b6000611754601f836119fc565b915061175f82611f68565b602082019050919050565b61177381611b60565b82525050565b61178281611b6a565b82525050565b600060208201905061179d6000830184611583565b92915050565b60006060820190506117b86000830186611583565b6117c56020830185611583565b6117d2604083018461176a565b949350505050565b60006040820190506117ef6000830185611583565b6117fc602083018461176a565b9392505050565b60006020820190506118186000830184611592565b92915050565b600060208201905061183360008301846115a1565b92915050565b6000602082019050818103600083015261185381846115b0565b905092915050565b60006020820190508181036000830152611874816115e9565b9050919050565b600060208201905081810360008301526118948161160c565b9050919050565b600060208201905081810360008301526118b48161162f565b9050919050565b600060208201905081810360008301526118d481611652565b9050919050565b600060208201905081810360008301526118f481611675565b9050919050565b6000602082019050818103600083015261191481611698565b9050919050565b60006020820190508181036000830152611934816116bb565b9050919050565b60006020820190508181036000830152611954816116de565b9050919050565b6000602082019050818103600083015261197481611701565b9050919050565b6000602082019050818103600083015261199481611724565b9050919050565b600060208201905081810360008301526119b481611747565b9050919050565b60006020820190506119d0600083018461176a565b92915050565b60006020820190506119eb6000830184611779565b92915050565b600081519050919050565b600082825260208201905092915050565b6000611a1882611b60565b9150611a2383611b60565b9250827fffffffffffffffffffffffffffffffffffffffffffffffffffffffffffffffff03821115611a5857611a57611c00565b5b828201905092915050565b6000611a6e82611b60565b9150611a7983611b60565b925082611a8957611a88611c2f565b5b828204905092915050565b6000611a9f82611b60565b9150611aaa83611b60565b9250817fffffffffffffffffffffffffffffffffffffffffffffffffffffffffffffffff0483118215151615611ae357611ae2611c00565b5b828202905092915050565b6000611af982611b60565b9150611b0483611b60565b925082821015611b1757611b16611c00565b5b828203905092915050565b6000611b2d82611b40565b9050919050565b60008115159050919050565b600073ffffffffffffffffffffffffffffffffffffffff82169050919050565b6000819050919050565b600060ff82169050919050565b6000611b8282611b89565b9050919050565b6000611b9482611b40565b9050919050565b60005b83811015611bb9578082015181840152602081019050611b9e565b83811115611bc8576000848401525b50505050565b60006002820490506001821680611be657607f821691505b60208210811415611bfa57611bf9611c5e565b5b50919050565b7f4e487b7100000000000000000000000000000000000000000000000000000000600052601160045260246000fd5b7f4e487b7100000000000000000000000000000000000000000000000000000000600052601260045260246000fd5b7f4e487b7100000000000000000000000000000000000000000000000000000000600052602260045260246000fd5b6000601f19601f8301169050919050565b7f45524332303a207472616e7366657220746f20746865207a65726f206164647260008201527f6573730000000000000000000000000000000000000000000000000000000000602082015250565b7f45524332303a206275726e20616d6f756e7420657863656564732062616c616e60008201527f6365000000000000000000000000000000000000000000000000000000000000602082015250565b7f45524332303a20617070726f766520746f20746865207a65726f20616464726560008201527f7373000000000000000000000000000000000000000000000000000000000000602082015250565b7f45524332303a20696e73756666696369656e7420616c6c6f77616e6365000000600082015250565b7f45524332303a207472616e7366657220616d6f756e742065786365656473206260008201527f616c616e63650000000000000000000000000000000000000000000000000000602082015250565b7f45524332303a206275726e2066726f6d20746865207a65726f2061646472657360008201527f7300000000000000000000000000000000000000000000000000000000000000602082015250565b7f45524332303a207472616e736665722066726f6d20746865207a65726f20616460008201527f6472657373000000000000000000000000000000000000000000000000000000602082015250565b7f45524332303a20617070726f76652066726f6d20746865207a65726f2061646460008201527f7265737300000000000000000000000000000000000000000000000000000000602082015250565b7f5265656e7472616e637947756172643a207265656e7472616e742063616c6c00600082015250565b7f45524332303a2064656372656173656420616c6c6f77616e63652062656c6f7760008201527f207a65726f000000000000000000000000000000000000000000000000000000602082015250565b7f45524332303a206d696e7420746f20746865207a65726f206164647265737300600082015250565b611f9a81611b22565b8114611fa557600080fd5b50565b611fb181611b34565b8114611fbc57600080fd5b50565b611fc881611b60565b8114611fd357600080fd5b5056fea264697066735822122080f1e71880ba8b9a0bc9a03eaf4482295aee5cff9c43d2f74ce8435d00eb524c64736f6c63430008040033",
  "linkReferences": {},
  "deployedLinkReferences": {}
}